{
  "contractName": "Electoral",
  "abi": [
    {
      "constant": false,
      "inputs": [],
      "name": "renounceOwnership",
      "outputs": [],
      "payable": false,
      "stateMutability": "nonpayable",
      "type": "function"
    },
    {
      "constant": true,
      "inputs": [],
      "name": "owner",
      "outputs": [
        {
          "name": "",
          "type": "address"
        }
      ],
      "payable": false,
      "stateMutability": "view",
      "type": "function"
    },
    {
      "constant": false,
      "inputs": [
        {
          "name": "_newOwner",
          "type": "address"
        }
      ],
      "name": "transferOwnership",
      "outputs": [],
      "payable": false,
      "stateMutability": "nonpayable",
      "type": "function"
    },
    {
      "inputs": [],
      "payable": false,
      "stateMutability": "nonpayable",
      "type": "constructor"
    },
    {
      "anonymous": false,
      "inputs": [
        {
          "indexed": true,
          "name": "previousOwner",
          "type": "address"
        }
      ],
      "name": "OwnershipRenounced",
      "type": "event"
    },
    {
      "anonymous": false,
      "inputs": [
        {
          "indexed": true,
          "name": "previousOwner",
          "type": "address"
        },
        {
          "indexed": true,
          "name": "newOwner",
          "type": "address"
        }
      ],
      "name": "OwnershipTransferred",
      "type": "event"
    },
    {
      "constant": false,
      "inputs": [
        {
          "name": "_code",
          "type": "bytes32"
        },
        {
          "name": "_start",
          "type": "uint256"
        },
        {
          "name": "_end",
          "type": "uint256"
        },
        {
          "name": "_name",
          "type": "bytes32"
        },
        {
          "name": "_candidates",
          "type": "bytes32[]"
        }
      ],
      "name": "addProcess",
      "outputs": [],
      "payable": false,
      "stateMutability": "nonpayable",
      "type": "function"
    },
    {
      "constant": true,
      "inputs": [
        {
          "name": "_code",
          "type": "bytes32"
        }
      ],
      "name": "getProcess",
      "outputs": [
        {
          "name": "",
          "type": "uint256"
        },
        {
          "name": "",
          "type": "uint256"
        }
      ],
      "payable": false,
      "stateMutability": "view",
      "type": "function"
    },
    {
      "constant": false,
      "inputs": [
        {
          "name": "_code",
          "type": "bytes32"
        },
        {
          "name": "_candidateId",
          "type": "bytes32"
        }
      ],
      "name": "removeCandidate",
      "outputs": [],
      "payable": false,
      "stateMutability": "nonpayable",
      "type": "function"
    },
    {
      "constant": true,
      "inputs": [
        {
          "name": "_code",
          "type": "bytes32"
        },
        {
          "name": "_candidateId",
          "type": "bytes32"
        }
      ],
      "name": "isInCandidates",
      "outputs": [
        {
          "name": "",
          "type": "bool"
        }
      ],
      "payable": false,
      "stateMutability": "view",
      "type": "function"
    },
    {
      "constant": false,
      "inputs": [
        {
          "name": "_code",
          "type": "bytes32"
        },
        {
          "name": "voter",
          "type": "bytes32"
        },
        {
          "name": "_candidateId",
          "type": "bytes32"
        }
      ],
      "name": "vote",
      "outputs": [],
      "payable": false,
      "stateMutability": "nonpayable",
      "type": "function"
    },
    {
      "constant": true,
      "inputs": [
        {
          "name": "_code",
          "type": "bytes32"
        },
        {
          "name": "_candidateId",
          "type": "bytes32"
        }
      ],
      "name": "getCandidateVotes",
      "outputs": [
        {
          "name": "",
          "type": "uint256"
        }
      ],
      "payable": false,
      "stateMutability": "view",
      "type": "function"
    }
  ],
  "bytecode": "0x608060405234801561001057600080fd5b50336000806101000a81548173ffffffffffffffffffffffffffffffffffffffff021916908373ffffffffffffffffffffffffffffffffffffffff16021790555033600160006101000a81548173ffffffffffffffffffffffffffffffffffffffff021916908373ffffffffffffffffffffffffffffffffffffffff160217905550610c43806100a16000396000f300608060405260043610610099576000357c0100000000000000000000000000000000000000000000000000000000900463ffffffff16806325dc78131461009e57806344f0ae2c146100eb578063599907f51461013e5780635a3aeca614610195578063715018a6146101d45780638da5cb5b146101eb578063992bc45b14610242578063d54d837c1461028e578063f2fde38b14610324575b600080fd5b3480156100aa57600080fd5b506100e9600480360381019080803560001916906020019092919080356000191690602001909291908035600019169060200190929190505050610367565b005b3480156100f757600080fd5b5061012860048036038101908080356000191690602001909291908035600019169060200190929190505050610423565b6040518082815260200191505060405180910390f35b34801561014a57600080fd5b5061017b600480360381019080803560001916906020019092919080356000191690602001909291905050506104c3565b604051808215151515815260200191505060405180910390f35b3480156101a157600080fd5b506101d260048036038101908080356000191690602001909291908035600019169060200190929190505050610515565b005b3480156101e057600080fd5b506101e9610687565b005b3480156101f757600080fd5b50610200610789565b604051808273ffffffffffffffffffffffffffffffffffffffff1673ffffffffffffffffffffffffffffffffffffffff16815260200191505060405180910390f35b34801561024e57600080fd5b5061027160048036038101908080356000191690602001909291905050506107af565b604051808381526020018281526020019250505060405180910390f35b34801561029a57600080fd5b5061032260048036038101908080356000191690602001909291908035906020019092919080359060200190929190803560001916906020019092919080359060200190820180359060200190808060200260200160405190810160405280939291908181526020018383602002808284378201915050505050509192919290505050610879565b005b34801561033057600080fd5b50610365600480360381019080803573ffffffffffffffffffffffffffffffffffffffff169060200190929190505050610a12565b005b602060405190810160405280600115158152506002600085600019166000191681526020019081526020016000206005016000846000191660001916815260200190815260200160002060008201518160000160006101000a81548160ff0219169083151502179055509050506002600084600019166000191681526020019081526020016000206004016000826000191660001916815260200190815260200160002060010160008154809291906001019190505550505050565b60008060009054906101000a900473ffffffffffffffffffffffffffffffffffffffff1673ffffffffffffffffffffffffffffffffffffffff163373ffffffffffffffffffffffffffffffffffffffff1614151561048057600080fd5b6002600084600019166000191681526020019081526020016000206004016000836000191660001916815260200190815260200160002060010154905092915050565b60006002600084600019166000191681526020019081526020016000206004016000836000191660001916815260200190815260200160002060000160009054906101000a900460ff16905092915050565b60008060009054906101000a900473ffffffffffffffffffffffffffffffffffffffff1673ffffffffffffffffffffffffffffffffffffffff163373ffffffffffffffffffffffffffffffffffffffff1614151561057257600080fd5b60026000846000191660001916815260200190815260200160002060040160008360001916600019168152602001908152602001600020600080820160006101000a81549060ff021916905560018201600090555050600090505b600260008460001916600019168152602001908152602001600020600301805490508110156106825781600019166002600085600019166000191681526020019081526020016000206003018281548110151561062657fe5b9060005260206000200154600019161415610675576002600084600019166000191681526020019081526020016000206003018181548110151561066657fe5b90600052602060002001600090555b80806001019150506105cd565b505050565b6000809054906101000a900473ffffffffffffffffffffffffffffffffffffffff1673ffffffffffffffffffffffffffffffffffffffff163373ffffffffffffffffffffffffffffffffffffffff161415156106e257600080fd5b6000809054906101000a900473ffffffffffffffffffffffffffffffffffffffff1673ffffffffffffffffffffffffffffffffffffffff167ff8df31144d9c2f0f6b59d69b8b98abd5459d07f2742c4df920b25aae33c6482060405160405180910390a260008060006101000a81548173ffffffffffffffffffffffffffffffffffffffff021916908373ffffffffffffffffffffffffffffffffffffffff160217905550565b600160009054906101000a900473ffffffffffffffffffffffffffffffffffffffff1681565b6000806107ba610b73565b6002600085600019166000191681526020019081526020016000206080604051908101604052908160008201548152602001600182015481526020016002820154600019166000191681526020016003820180548060200260200160405190810160405280929190818152602001828054801561085a57602002820191906000526020600020905b81546000191681526020019060010190808311610842575b5050505050815250509050806000015181602001519250925050915091565b60008060009054906101000a900473ffffffffffffffffffffffffffffffffffffffff1673ffffffffffffffffffffffffffffffffffffffff163373ffffffffffffffffffffffffffffffffffffffff161415156108d657600080fd5b60806040519081016040528086815260200185815260200184600019168152602001838152506002600088600019166000191681526020019081526020016000206000820151816000015560208201518160010155604082015181600201906000191690556060820151816003019080519060200190610957929190610b9f565b50905050600090505b8151811015610a0a5760408051908101604052806001151581526020016000815250600260008860001916600019168152602001908152602001600020600401600084848151811015156109b057fe5b906020019060200201516000191660001916815260200190815260200160002060008201518160000160006101000a81548160ff021916908315150217905550602082015181600101559050508080600101915050610960565b505050505050565b6000809054906101000a900473ffffffffffffffffffffffffffffffffffffffff1673ffffffffffffffffffffffffffffffffffffffff163373ffffffffffffffffffffffffffffffffffffffff16141515610a6d57600080fd5b610a7681610a79565b50565b600073ffffffffffffffffffffffffffffffffffffffff168173ffffffffffffffffffffffffffffffffffffffff1614151515610ab557600080fd5b8073ffffffffffffffffffffffffffffffffffffffff166000809054906101000a900473ffffffffffffffffffffffffffffffffffffffff1673ffffffffffffffffffffffffffffffffffffffff167f8be0079c531659141344cd1fd0a4f28419497f9722a3daafe3b4186f6b6457e060405160405180910390a3806000806101000a81548173ffffffffffffffffffffffffffffffffffffffff021916908373ffffffffffffffffffffffffffffffffffffffff16021790555050565b608060405190810160405280600081526020016000815260200160008019168152602001606081525090565b828054828255906000526020600020908101928215610be1579160200282015b82811115610be0578251829060001916905591602001919060010190610bbf565b5b509050610bee9190610bf2565b5090565b610c1491905b80821115610c10576000816000905550600101610bf8565b5090565b905600a165627a7a723058206c54913dd962f1848d93dcdf4e83d110f486a56dacee3eb2eff10cb9e63509950029",
  "source": "pragma solidity ^0.4.24;\n\nimport 'openzeppelin-solidity/contracts/ownership/Ownable.sol';\n\ncontract Electoral is Ownable {\n\n    address public owner;\n\n    constructor() public {\n        owner = msg.sender;\n    }\n\n    mapping (bytes32 => Process) private ElectoralProcess;\n\n    struct Process {\n        uint start;\n        uint end;\n        bytes32 name;\n        bytes32[] candidateKeys;\n        mapping(bytes32 => Candidate) candidates;\n        mapping(bytes32 => Voter) voters;\n    }\n\n    struct Candidate {\n        bool isCandidate;\n        uint votesCounter;\n    }\n\n    struct Voter {\n        bool hasVoted;\n    }\n\n    function addProcess(bytes32 _code, uint _start, uint _end, bytes32 _name, bytes32[] _candidates) public onlyOwner {\n        ElectoralProcess[_code] = Process({ start: _start, end: _end, name: _name, candidateKeys: _candidates });\n        for(uint i=0; i<_candidates.length; i++) {\n            ElectoralProcess[_code].candidates[_candidates[i]] = Candidate({isCandidate: true, votesCounter: 0});\n        }\n    }\n\n    function getProcess(bytes32 _code) public view returns (uint, uint) {\n        Process memory process = ElectoralProcess[_code];\n        return (process.start, process.end);\n    }\n\n    function removeCandidate(bytes32 _code, bytes32 _candidateId) public onlyOwner {\n        delete ElectoralProcess[_code].candidates[_candidateId];\n        for (uint i=0; i<ElectoralProcess[_code].candidateKeys.length; i++) {\n            if(ElectoralProcess[_code].candidateKeys[i] == _candidateId) {\n                delete ElectoralProcess[_code].candidateKeys[i];\n            }\n        }\n    }\n\n    function isInCandidates(bytes32 _code, bytes32 _candidateId) public view returns(bool) {\n        return  ElectoralProcess[_code].candidates[_candidateId].isCandidate;\n    }\n\n    function vote(bytes32 _code, bytes32 voter, bytes32 _candidateId) public {\n        ElectoralProcess[_code].voters[voter] = Voter({hasVoted: true});\n        ElectoralProcess[_code].candidates[_candidateId].votesCounter++;\n    }\n\n    function getCandidateVotes(bytes32 _code, bytes32 _candidateId) public onlyOwner view returns (uint) {\n        return ElectoralProcess[_code].candidates[_candidateId].votesCounter;\n    }\n\n}",
  "sourcePath": "/home/camilo/Vivelab/hackaton/contract/contracts/Electoral.sol",
  "compiler": {
    "name": "solc",
    "version": "0.4.24+commit.e67f0147.Emscripten.clang"
  },
  "schemaVersion": "2.0.1",
  "updatedAt": "2018-10-18T08:50:56.024Z"
}